{
  "contractName": "DoraMarketplace",
  "abi": [
    {
      "inputs": [
        {
          "internalType": "address",
          "name": "_doraContractAddress",
          "type": "address"
        }
      ],
      "stateMutability": "nonpayable",
      "type": "constructor"
    },
    {
      "anonymous": false,
      "inputs": [
        {
          "indexed": false,
          "internalType": "string",
          "name": "TxType",
          "type": "string"
        },
        {
          "indexed": false,
          "internalType": "address",
          "name": "owner",
          "type": "address"
        },
        {
          "indexed": false,
          "internalType": "uint256",
          "name": "tokenId",
          "type": "uint256"
        }
      ],
      "name": "MarketTransaction",
      "type": "event"
    },
    {
      "anonymous": false,
      "inputs": [
        {
          "indexed": true,
          "internalType": "address",
          "name": "previousOwner",
          "type": "address"
        },
        {
          "indexed": true,
          "internalType": "address",
          "name": "newOwner",
          "type": "address"
        }
      ],
      "name": "OwnershipTransferred",
      "type": "event"
    },
    {
      "inputs": [],
      "name": "owner",
      "outputs": [
        {
          "internalType": "address",
          "name": "",
          "type": "address"
        }
      ],
      "stateMutability": "view",
      "type": "function",
      "constant": true
    },
    {
      "inputs": [],
      "name": "renounceOwnership",
      "outputs": [],
      "stateMutability": "nonpayable",
      "type": "function"
    },
    {
      "inputs": [
        {
          "internalType": "address",
          "name": "newOwner",
          "type": "address"
        }
      ],
      "name": "transferOwnership",
      "outputs": [],
      "stateMutability": "nonpayable",
      "type": "function"
    },
    {
      "inputs": [
        {
          "internalType": "address",
          "name": "_doraContractAddress",
          "type": "address"
        }
      ],
      "name": "setDoraContract",
      "outputs": [],
      "stateMutability": "nonpayable",
      "type": "function"
    },
    {
      "inputs": [],
      "name": "getContractAddress",
      "outputs": [
        {
          "internalType": "address",
          "name": "",
          "type": "address"
        }
      ],
      "stateMutability": "view",
      "type": "function",
      "constant": true
    },
    {
      "inputs": [
        {
          "internalType": "uint256",
          "name": "_tokenId",
          "type": "uint256"
        }
      ],
      "name": "getOffer",
      "outputs": [
        {
          "internalType": "address",
          "name": "seller",
          "type": "address"
        },
        {
          "internalType": "uint256",
          "name": "price",
          "type": "uint256"
        },
        {
          "internalType": "uint256",
          "name": "index",
          "type": "uint256"
        },
        {
          "internalType": "uint256",
          "name": "tokenId",
          "type": "uint256"
        },
        {
          "internalType": "bool",
          "name": "active",
          "type": "bool"
        }
      ],
      "stateMutability": "view",
      "type": "function",
      "constant": true
    },
    {
      "inputs": [],
      "name": "getAllTokenOnSale",
      "outputs": [
        {
          "internalType": "uint256[]",
          "name": "",
          "type": "uint256[]"
        }
      ],
      "stateMutability": "view",
      "type": "function",
      "constant": true
    },
    {
      "inputs": [
        {
          "internalType": "uint256",
          "name": "_price",
          "type": "uint256"
        },
        {
          "internalType": "uint256",
          "name": "_tokenId",
          "type": "uint256"
        }
      ],
      "name": "setOffer",
      "outputs": [],
      "stateMutability": "nonpayable",
      "type": "function"
    },
    {
      "inputs": [
        {
          "internalType": "uint256",
          "name": "_tokenId",
          "type": "uint256"
        }
      ],
      "name": "removeOffer",
      "outputs": [],
      "stateMutability": "nonpayable",
      "type": "function"
    },
    {
      "inputs": [
        {
          "internalType": "uint256",
          "name": "_tokenId",
          "type": "uint256"
        }
      ],
      "name": "buyDoraemon",
      "outputs": [],
      "stateMutability": "payable",
      "type": "function",
      "payable": true
    }
  ],
  "bytecode": "0x60806040523480156200001157600080fd5b50604051620026733803806200267383398181016040528101906200003791906200021a565b600062000049620000ff60201b60201c565b9050806000806101000a81548173ffffffffffffffffffffffffffffffffffffffff021916908373ffffffffffffffffffffffffffffffffffffffff1602179055508073ffffffffffffffffffffffffffffffffffffffff16600073ffffffffffffffffffffffffffffffffffffffff167f8be0079c531659141344cd1fd0a4f28419497f9722a3daafe3b4186f6b6457e060405160405180910390a350620000f8816200010760201b60201c565b5062000317565b600033905090565b62000117620000ff60201b60201c565b73ffffffffffffffffffffffffffffffffffffffff166200013d620001da60201b60201c565b73ffffffffffffffffffffffffffffffffffffffff161462000196576040517f08c379a00000000000000000000000000000000000000000000000000000000081526004016200018d906200026d565b60405180910390fd5b80600160006101000a81548173ffffffffffffffffffffffffffffffffffffffff021916908373ffffffffffffffffffffffffffffffffffffffff16021790555050565b60008060009054906101000a900473ffffffffffffffffffffffffffffffffffffffff16905090565b6000815190506200021481620002fd565b92915050565b6000602082840312156200022d57600080fd5b60006200023d8482850162000203565b91505092915050565b6000620002556020836200028f565b91506200026282620002d4565b602082019050919050565b60006020820190508181036000830152620002888162000246565b9050919050565b600082825260208201905092915050565b6000620002ad82620002b4565b9050919050565b600073ffffffffffffffffffffffffffffffffffffffff82169050919050565b7f4f776e61626c653a2063616c6c6572206973206e6f7420746865206f776e6572600082015250565b6200030881620002a0565b81146200031457600080fd5b50565b61234c80620003276000396000f3fe6080604052600436106100915760003560e01c8063715018a611610059578063715018a6146101725780638da5cb5b14610189578063941b055b146101b457806395a0f9c7146101dd578063f2fde38b1461020657610091565b806307b183371461009657806332a2c5d0146100b257806336ca541c146100dd5780634579268a1461010657806349b3709f14610147575b600080fd5b6100b060048036038101906100ab91906116e1565b61022f565b005b3480156100be57600080fd5b506100c76103f2565b6040516100d49190611a3d565b60405180910390f35b3480156100e957600080fd5b5061010460048036038101906100ff9190611666565b6103fa565b005b34801561011257600080fd5b5061012d600480360381019061012891906116e1565b6104ba565b60405161013e959493929190611ab8565b60405180910390f35b34801561015357600080fd5b5061015c610596565b6040516101699190611b0b565b60405180910390f35b34801561017e57600080fd5b506101876106cd565b005b34801561019557600080fd5b5061019e610807565b6040516101ab9190611a3d565b60405180910390f35b3480156101c057600080fd5b506101db60048036038101906101d6919061170a565b610830565b005b3480156101e957600080fd5b5061020460048036038101906101ff91906116e1565b610aad565b005b34801561021257600080fd5b5061022d60048036038101906102289190611666565b610bc8565b005b6000600360008381526020019081526020016000206040518060a00160405290816000820160009054906101000a900473ffffffffffffffffffffffffffffffffffffffff1673ffffffffffffffffffffffffffffffffffffffff1673ffffffffffffffffffffffffffffffffffffffff1681526020016001820154815260200160028201548152602001600382015481526020016004820160009054906101000a900460ff161515151581525050905034816020015114610326576040517f08c379a000000000000000000000000000000000000000000000000000000000815260040161031d90611b4d565b60405180910390fd5b3373ffffffffffffffffffffffffffffffffffffffff16816000015173ffffffffffffffffffffffffffffffffffffffff161415610399576040517f08c379a000000000000000000000000000000000000000000000000000000000815260040161039090611d01565b60405180910390fd5b6001151581608001511515146103e4576040517f08c379a00000000000000000000000000000000000000000000000000000000081526004016103db90611c45565b60405180910390fd5b6103ee8233610d71565b5050565b600030905090565b610402610fbc565b73ffffffffffffffffffffffffffffffffffffffff16610420610807565b73ffffffffffffffffffffffffffffffffffffffff1614610476576040517f08c379a000000000000000000000000000000000000000000000000000000000815260040161046d90611c65565b60405180910390fd5b80600160006101000a81548173ffffffffffffffffffffffffffffffffffffffff021916908373ffffffffffffffffffffffffffffffffffffffff16021790555050565b600080600080600080600360008881526020019081526020016000209050600115158160040160009054906101000a900460ff16151514610530576040517f08c379a000000000000000000000000000000000000000000000000000000000815260040161052790611b2d565b60405180910390fd5b8060000160009054906101000a900473ffffffffffffffffffffffffffffffffffffffff169550858160010154955085826002015495508583600301549550858460040160009054906101000a900460ff16955095509550955095505091939590929450565b60606000600280549050905060008167ffffffffffffffff8111156105e4577f4e487b7100000000000000000000000000000000000000000000000000000000600052604160045260246000fd5b6040519080825280602002602001820160405280156106125781602001602082028036833780820191505090505b50905060005b828110156106c4576002818154811061065a577f4e487b7100000000000000000000000000000000000000000000000000000000600052603260045260246000fd5b9060005260206000209060050201600301548282815181106106a5577f4e487b7100000000000000000000000000000000000000000000000000000000600052603260045260246000fd5b60200260200101818152505080806106bc90611e4d565b915050610618565b50809250505090565b6106d5610fbc565b73ffffffffffffffffffffffffffffffffffffffff166106f3610807565b73ffffffffffffffffffffffffffffffffffffffff1614610749576040517f08c379a000000000000000000000000000000000000000000000000000000000815260040161074090611c65565b60405180910390fd5b600073ffffffffffffffffffffffffffffffffffffffff1660008054906101000a900473ffffffffffffffffffffffffffffffffffffffff1673ffffffffffffffffffffffffffffffffffffffff167f8be0079c531659141344cd1fd0a4f28419497f9722a3daafe3b4186f6b6457e060405160405180910390a360008060006101000a81548173ffffffffffffffffffffffffffffffffffffffff021916908373ffffffffffffffffffffffffffffffffffffffff160217905550565b60008060009054906101000a900473ffffffffffffffffffffffffffffffffffffffff16905090565b600160009054906101000a900473ffffffffffffffffffffffffffffffffffffffff1673ffffffffffffffffffffffffffffffffffffffff16636352211e826040518263ffffffff1660e01b815260040161088b9190611d61565b60206040518083038186803b1580156108a357600080fd5b505afa1580156108b7573d6000803e3d6000fd5b505050506040513d601f19601f820116820180604052508101906108db919061168f565b73ffffffffffffffffffffffffffffffffffffffff163373ffffffffffffffffffffffffffffffffffffffff1614610948576040517f08c379a000000000000000000000000000000000000000000000000000000000815260040161093f90611d21565b60405180910390fd5b600015156003600083815260200190815260200160002060040160009054906101000a900460ff161515146109b2576040517f08c379a00000000000000000000000000000000000000000000000000000000081526004016109a990611b8d565b60405180910390fd5b600160009054906101000a900473ffffffffffffffffffffffffffffffffffffffff1673ffffffffffffffffffffffffffffffffffffffff1663e985e9c533306040518363ffffffff1660e01b8152600401610a0f929190611a58565b60206040518083038186803b158015610a2757600080fd5b505afa158015610a3b573d6000803e3d6000fd5b505050506040513d601f19601f82011682018060405250810190610a5f91906116b8565b610a9e576040517f08c379a0000000000000000000000000000000000000000000000000000000008152600401610a9590611c85565b60405180910390fd5b610aa9828233610fc4565b5050565b6003600082815260200190815260200160002060000160009054906101000a900473ffffffffffffffffffffffffffffffffffffffff1673ffffffffffffffffffffffffffffffffffffffff163373ffffffffffffffffffffffffffffffffffffffff1614610b51576040517f08c379a0000000000000000000000000000000000000000000000000000000008152600401610b4890611d41565b60405180910390fd5b600115156003600083815260200190815260200160002060040160009054906101000a900460ff16151514610bbb576040517f08c379a0000000000000000000000000000000000000000000000000000000008152600401610bb290611bad565b60405180910390fd5b610bc5813361119b565b50565b610bd0610fbc565b73ffffffffffffffffffffffffffffffffffffffff16610bee610807565b73ffffffffffffffffffffffffffffffffffffffff1614610c44576040517f08c379a0000000000000000000000000000000000000000000000000000000008152600401610c3b90611c65565b60405180910390fd5b600073ffffffffffffffffffffffffffffffffffffffff168173ffffffffffffffffffffffffffffffffffffffff161415610cb4576040517f08c379a0000000000000000000000000000000000000000000000000000000008152600401610cab90611b6d565b60405180910390fd5b8073ffffffffffffffffffffffffffffffffffffffff1660008054906101000a900473ffffffffffffffffffffffffffffffffffffffff1673ffffffffffffffffffffffffffffffffffffffff167f8be0079c531659141344cd1fd0a4f28419497f9722a3daafe3b4186f6b6457e060405160405180910390a3806000806101000a81548173ffffffffffffffffffffffffffffffffffffffff021916908373ffffffffffffffffffffffffffffffffffffffff16021790555050565b6000600360008481526020019081526020016000206040518060a00160405290816000820160009054906101000a900473ffffffffffffffffffffffffffffffffffffffff1673ffffffffffffffffffffffffffffffffffffffff1673ffffffffffffffffffffffffffffffffffffffff1681526020016001820154815260200160028201548152602001600382015481526020016004820160009054906101000a900460ff161515151581525050905060008160000151905060008260200151905060008273ffffffffffffffffffffffffffffffffffffffff1682604051610e5a90611a28565b60006040518083038185875af1925050503d8060008114610e97576040519150601f19603f3d011682016040523d82523d6000602084013e610e9c565b606091505b5050905080610ee0576040517f08c379a0000000000000000000000000000000000000000000000000000000008152600401610ed790611ce1565b60405180910390fd5b600160009054906101000a900473ffffffffffffffffffffffffffffffffffffffff1673ffffffffffffffffffffffffffffffffffffffff166323b872dd8487896040518463ffffffff1660e01b8152600401610f3f93929190611a81565b600060405180830381600087803b158015610f5957600080fd5b505af1158015610f6d573d6000803e3d6000fd5b50505050610f7b868461119b565b7fd99e4fad9ad6313b1feb588fa8e605e3a9873172f2024330c35dd2b4041a43868587604051610fac929190611c09565b60405180910390a1505050505050565b600033905090565b60006040518060a001604052808373ffffffffffffffffffffffffffffffffffffffff1681526020018581526020016002805490508152602001848152602001600115158152509050600281908060018154018082558091505060019003906000526020600020906005020160009091909190915060008201518160000160006101000a81548173ffffffffffffffffffffffffffffffffffffffff021916908373ffffffffffffffffffffffffffffffffffffffff16021790555060208201518160010155604082015181600201556060820151816003015560808201518160040160006101000a81548160ff0219169083151502179055505050806003600085815260200190815260200160002060008201518160000160006101000a81548173ffffffffffffffffffffffffffffffffffffffff021916908373ffffffffffffffffffffffffffffffffffffffff16021790555060208201518160010155604082015181600201556060820151816003015560808201518160040160006101000a81548160ff0219169083151502179055509050507fd99e4fad9ad6313b1feb588fa8e605e3a9873172f2024330c35dd2b4041a4386828460405161118d929190611bcd565b60405180910390a150505050565b600060036000848152602001908152602001600020600201549050600060016002805490506111ca9190611dd1565b905060008111156114c6576002818154811061120f577f4e487b7100000000000000000000000000000000000000000000000000000000600052603260045260246000fd5b906000526020600020906005020160028381548110611257577f4e487b7100000000000000000000000000000000000000000000000000000000600052603260045260246000fd5b90600052602060002090600502016000820160009054906101000a900473ffffffffffffffffffffffffffffffffffffffff168160000160006101000a81548173ffffffffffffffffffffffffffffffffffffffff021916908373ffffffffffffffffffffffffffffffffffffffff1602179055506001820154816001015560028201548160020155600382015481600301556004820160009054906101000a900460ff168160040160006101000a81548160ff0219169083151502179055509050508160028381548110611355577f4e487b7100000000000000000000000000000000000000000000000000000000600052603260045260246000fd5b906000526020600020906005020160020181905550600282815481106113a4577f4e487b7100000000000000000000000000000000000000000000000000000000600052603260045260246000fd5b906000526020600020906005020160036000600285815481106113f0577f4e487b7100000000000000000000000000000000000000000000000000000000600052603260045260246000fd5b90600052602060002090600502016003015481526020019081526020016000206000820160009054906101000a900473ffffffffffffffffffffffffffffffffffffffff168160000160006101000a81548173ffffffffffffffffffffffffffffffffffffffff021916908373ffffffffffffffffffffffffffffffffffffffff1602179055506001820154816001015560028201548160020155600382015481600301556004820160009054906101000a900460ff168160040160006101000a81548160ff0219169083151502179055509050505b60028054806114fe577f4e487b7100000000000000000000000000000000000000000000000000000000600052603160045260246000fd5b6001900381819060005260206000209060050201600080820160006101000a81549073ffffffffffffffffffffffffffffffffffffffff02191690556001820160009055600282016000905560038201600090556004820160006101000a81549060ff02191690555050905560036000858152602001908152602001600020600080820160006101000a81549073ffffffffffffffffffffffffffffffffffffffff02191690556001820160009055600282016000905560038201600090556004820160006101000a81549060ff021916905550507fd99e4fad9ad6313b1feb588fa8e605e3a9873172f2024330c35dd2b4041a43868385604051611604929190611ca5565b60405180910390a150505050565b600081359050611621816122d1565b92915050565b600081519050611636816122d1565b92915050565b60008151905061164b816122e8565b92915050565b600081359050611660816122ff565b92915050565b60006020828403121561167857600080fd5b600061168684828501611612565b91505092915050565b6000602082840312156116a157600080fd5b60006116af84828501611627565b91505092915050565b6000602082840312156116ca57600080fd5b60006116d88482850161163c565b91505092915050565b6000602082840312156116f357600080fd5b600061170184828501611651565b91505092915050565b6000806040838503121561171d57600080fd5b600061172b85828601611651565b925050602061173c85828601611651565b9150509250929050565b60006117528383611a0a565b60208301905092915050565b61176781611e05565b82525050565b600061177882611d8c565b6117828185611da4565b935061178d83611d7c565b8060005b838110156117be5781516117a58882611746565b97506117b083611d97565b925050600181019050611791565b5085935050505092915050565b6117d481611e17565b82525050565b60006117e7603483611dc0565b91506117f282611ec5565b604082019050919050565b600061180a601b83611dc0565b915061181582611f14565b602082019050919050565b600061182d602683611dc0565b915061183882611f3d565b604082019050919050565b6000611850602983611dc0565b915061185b82611f8c565b604082019050919050565b6000611873602d83611dc0565b915061187e82611fdb565b604082019050919050565b6000611896600c83611dc0565b91506118a18261202a565b602082019050919050565b60006118b9600383611dc0565b91506118c482612053565b602082019050919050565b60006118dc602683611dc0565b91506118e78261207c565b604082019050919050565b60006118ff602083611dc0565b915061190a826120cb565b602082019050919050565b6000611922604a83611dc0565b915061192d826120f4565b606082019050919050565b6000611945600c83611dc0565b915061195082612169565b602082019050919050565b6000611968602f83611dc0565b915061197382612192565b604082019050919050565b600061198b600083611db5565b9150611996826121e1565b600082019050919050565b60006119ae602683611dc0565b91506119b9826121e4565b604082019050919050565b60006119d1603083611dc0565b91506119dc82612233565b604082019050919050565b60006119f4603b83611dc0565b91506119ff82612282565b604082019050919050565b611a1381611e43565b82525050565b611a2281611e43565b82525050565b6000611a338261197e565b9150819050919050565b6000602082019050611a52600083018461175e565b92915050565b6000604082019050611a6d600083018561175e565b611a7a602083018461175e565b9392505050565b6000606082019050611a96600083018661175e565b611aa3602083018561175e565b611ab06040830184611a19565b949350505050565b600060a082019050611acd600083018861175e565b611ada6020830187611a19565b611ae76040830186611a19565b611af46060830185611a19565b611b0160808301846117cb565b9695505050505050565b60006020820190508181036000830152611b25818461176d565b905092915050565b60006020820190508181036000830152611b46816117da565b9050919050565b60006020820190508181036000830152611b66816117fd565b9050919050565b60006020820190508181036000830152611b8681611820565b9050919050565b60006020820190508181036000830152611ba681611843565b9050919050565b60006020820190508181036000830152611bc681611866565b9050919050565b60006060820190508181036000830152611be681611889565b9050611bf5602083018561175e565b611c026040830184611a19565b9392505050565b60006060820190508181036000830152611c22816118ac565b9050611c31602083018561175e565b611c3e6040830184611a19565b9392505050565b60006020820190508181036000830152611c5e816118cf565b9050919050565b60006020820190508181036000830152611c7e816118f2565b9050919050565b60006020820190508181036000830152611c9e81611915565b9050919050565b60006060820190508181036000830152611cbe81611938565b9050611ccd602083018561175e565b611cda6040830184611a19565b9392505050565b60006020820190508181036000830152611cfa8161195b565b9050919050565b60006020820190508181036000830152611d1a816119a1565b9050919050565b60006020820190508181036000830152611d3a816119c4565b9050919050565b60006020820190508181036000830152611d5a816119e7565b9050919050565b6000602082019050611d766000830184611a19565b92915050565b6000819050602082019050919050565b600081519050919050565b6000602082019050919050565b600082825260208201905092915050565b600081905092915050565b600082825260208201905092915050565b6000611ddc82611e43565b9150611de783611e43565b925082821015611dfa57611df9611e96565b5b828203905092915050565b6000611e1082611e23565b9050919050565b60008115159050919050565b600073ffffffffffffffffffffffffffffffffffffffff82169050919050565b6000819050919050565b6000611e5882611e43565b91507fffffffffffffffffffffffffffffffffffffffffffffffffffffffffffffffff821415611e8b57611e8a611e96565b5b600182019050919050565b7f4e487b7100000000000000000000000000000000000000000000000000000000600052601160045260246000fd5b7f4d61726b6574706c6163653a205468657265206973206e6f206163746976652060008201527f6f6666657220666f72207468697320746f6b656e000000000000000000000000602082015250565b7f4d61726b6574706c6163653a20496e636f72726563742066756e640000000000600082015250565b7f4f776e61626c653a206e6577206f776e657220697320746865207a65726f206160008201527f6464726573730000000000000000000000000000000000000000000000000000602082015250565b7f4d61726b6574706c6163653a2054686520746f6b656e20697320616c7265616460008201527f79206f6e2073616c650000000000000000000000000000000000000000000000602082015250565b7f4d61726b6574706c6163653a2054686520746f6b656e20697320616c7265616460008201527f79206e6f74206f6e2073616c6500000000000000000000000000000000000000602082015250565b7f437265617465206f666665720000000000000000000000000000000000000000600082015250565b7f4275790000000000000000000000000000000000000000000000000000000000600082015250565b7f4d61726b6574706c6163653a2054686520746f6b656e206973206e6f7420666f60008201527f722073656c6c0000000000000000000000000000000000000000000000000000602082015250565b7f4f776e61626c653a2063616c6c6572206973206e6f7420746865206f776e6572600082015250565b7f4d61726b6574706c6163653a20436f6e7472616374206e6565647320746f206160008201527f7070726f76656420746f207472616e7366657220446f7261656d6f6e20696e2060208201527f7468652066757475726500000000000000000000000000000000000000000000604082015250565b7f52656d6f7665206f666665720000000000000000000000000000000000000000600082015250565b7f4d61726b6574706c6163653a204661696c656420746f2073656e642066756e6460008201527f7320746f207468652073656c6c65720000000000000000000000000000000000602082015250565b50565b7f4d61726b6574706c6163653a2043616e6e6f7420627920796f7572206f776e2060008201527f746f6b656e210000000000000000000000000000000000000000000000000000602082015250565b7f4d61726b6574706c6163653a20596f7520617265206e6f7420746865206f776e60008201527f6572206f66207468697320746f6b656e00000000000000000000000000000000602082015250565b7f4d61726b6574706c6163653a204f6e6c79207468652073656c6c6572206f662060008201527f7468697320746f6b656e2063616e2072656d6f7665206f666665720000000000602082015250565b6122da81611e05565b81146122e557600080fd5b50565b6122f181611e17565b81146122fc57600080fd5b50565b61230881611e43565b811461231357600080fd5b5056fea2646970667358221220bccf0a94dbdb31848de5cc8628ada747ebb5ff8261279cabdaeebeb7983aaf4064736f6c63430008040033",
  "immutableReferences": {},
  "source": "// SPDX-License-Identifier: MIT\npragma solidity ^0.8.0;\n\nimport \"./Doracontract.sol\";\nimport \"../node_modules/@openzeppelin/contracts/access/Ownable.sol\";\nimport \"./interface/IDoraMarketplace.sol\";\n\ncontract DoraMarketplace is Ownable, IDoraMarketPlace {\n  Doracontract private _DoraContract;\n\n  struct Offer {\n    address seller;\n    uint256 price;\n    uint256 index;\n    uint256 tokenId;\n    bool active;\n  }   \n\n  Offer[] private offers;\n  mapping(uint256 => Offer) private tokenIdToOffer;\n\n  constructor(address _doraContractAddress) {\n    setDoraContract(_doraContractAddress);\n  }\n\n  function setDoraContract(address _doraContractAddress) public override onlyOwner {\n    _DoraContract = Doracontract(_doraContractAddress);\n  }\n\n  function getContractAddress() external view returns(address){\n    return address(this);\n  }\n  \n  function getOffer(uint256 _tokenId) external override view returns ( address seller, uint256 price, uint256 index, uint256 tokenId, bool active){\n    Offer storage offer = tokenIdToOffer[_tokenId];\n    require(offer.active == true, \"Marketplace: There is no active offer for this token\");\n    return (\n      seller = offer.seller,\n      price = offer.price,\n      index = offer.index,\n      tokenId = offer.tokenId,\n      active = offer.active\n    );\n  }\n\n  function getAllTokenOnSale() external override view returns(uint256[] memory){\n    uint256 numOfOffers = offers.length;\n    uint256[] memory listOfOffers = new uint256[](numOfOffers);\n    for(uint i = 0; i < numOfOffers; i++){\n      listOfOffers[i] = offers[i].tokenId;\n    }\n    return listOfOffers;\n  }\n\n  function setOffer(uint256 _price, uint256 _tokenId) external override {\n    require(msg.sender == _DoraContract.ownerOf(_tokenId), \"Marketplace: You are not the owner of this token\");\n    require(tokenIdToOffer[_tokenId].active == false, \"Marketplace: The token is already on sale\");\n    require(_DoraContract.isApprovedForAll(msg.sender, address(this)), \"Marketplace: Contract needs to approved to transfer Doraemon in the future\");\n    _setOffer(_price, _tokenId, msg.sender);\n  }\n\n  function removeOffer(uint256 _tokenId) external override {\n    require(msg.sender == tokenIdToOffer[_tokenId].seller, \"Marketplace: Only the seller of this token can remove offer\");\n    require(tokenIdToOffer[_tokenId].active == true, \"Marketplace: The token is already not on sale\");\n    _removeOffer(_tokenId, msg.sender);\n  }\n\n  function buyDoraemon(uint256 _tokenId) external override payable {\n    Offer memory targetToken = tokenIdToOffer[_tokenId];\n    require(targetToken.price == msg.value, \"Marketplace: Incorrect fund\" );\n    require(targetToken.seller != msg.sender, \"Marketplace: Cannot by your own token!\");\n    require(targetToken.active == true, \"Marketplace: The token is not for sell\");\n    _buyDoraemon(_tokenId, msg.sender);\n  }\n\n  function _setOffer(uint256 _price, uint256 _tokenId, address _seller) internal {\n    Offer memory newOffer = Offer({\n      seller: _seller,\n      price: _price,\n      index: offers.length,\n      tokenId: _tokenId,\n      active: true\n    });\n    offers.push(newOffer);\n    tokenIdToOffer[_tokenId] = newOffer;\n    emit MarketTransaction(\"Create offer\", _seller, _tokenId);\n  }\n\n  function _removeOffer(uint256 _tokenId, address _seller) internal {\n    uint256 targetIndex = tokenIdToOffer[_tokenId].index;\n    uint256 lastIndex = offers.length - 1;\n    if(lastIndex > 0){\n      offers[targetIndex] = offers[lastIndex];\n      offers[targetIndex].index = targetIndex;\n      tokenIdToOffer[offers[targetIndex].tokenId] = offers[targetIndex];\n    }\n    offers.pop();\n    delete tokenIdToOffer[_tokenId];\n    emit MarketTransaction(\"Remove offer\", _seller, _tokenId);\n  }\n\n  function _buyDoraemon(uint256 _tokenId, address _buyer) internal {\n    Offer memory targetToken = tokenIdToOffer[_tokenId];\n    address seller = targetToken.seller;\n    uint256 price = targetToken.price;\n    (bool success, ) = payable(seller).call{value: price}(\"\");\n    require(success, \"Marketplace: Failed to send funds to the seller\");\n    _DoraContract.transferFrom(seller, _buyer, _tokenId);\n    _removeOffer(_tokenId, seller);\n    emit MarketTransaction(\"Buy\", _buyer, _tokenId);\n  }\n}",
  "sourcePath": "/Users/riomain/code/blockchain/academy/nftgame/doraemon/contracts/DoraMarketplace.sol",
  "compiler": {
    "name": "solc",
    "version": "0.8.4+commit.c7e474f2.Emscripten.clang"
  },
  "schemaVersion": "3.3.4",
  "updatedAt": "2021-05-25T13:44:58.861Z",
  "networkType": "ethereum",
  "devdoc": {
    "kind": "dev",
    "methods": {
      "owner()": {
        "details": "Returns the address of the current owner."
      },
      "renounceOwnership()": {
        "details": "Leaves the contract without owner. It will not be possible to call `onlyOwner` functions anymore. Can only be called by the current owner. NOTE: Renouncing ownership will leave the contract without an owner, thereby removing any functionality that is only available to the owner."
      },
      "transferOwnership(address)": {
        "details": "Transfers ownership of the contract to a new account (`newOwner`). Can only be called by the current owner."
      }
    },
    "version": 1
  },
  "userdoc": {
    "kind": "user",
    "methods": {
      "buyDoraemon(uint256)": {
        "notice": "Executes the purchase of _tokenId. Sends the funds to the seller and transfers the token using transferFrom in Kittycontract. Emits the MarketTransaction event with txType \"Buy\". Requirement: The msg.value needs to equal the price of _tokenId Requirement: There must be an active offer for _tokenId"
      },
      "getAllTokenOnSale()": {
        "notice": "Get all tokenId's that are currently for sale. Returns an empty arror if none exist."
      },
      "getOffer(uint256)": {
        "notice": "Get the details about a offer for _tokenId. Throws an error if there is no active offer for _tokenId."
      },
      "removeOffer(uint256)": {
        "notice": "Removes an existing offer. Emits the MarketTransaction event with txType \"Remove offer\" Requirement: Only the seller of _tokenId can remove an offer."
      },
      "setDoraContract(address)": {
        "notice": "Set the current KittyContract address and initialize the instance of Kittycontract. Requirement: Only the contract owner can call."
      },
      "setOffer(uint256,uint256)": {
        "notice": "Creates a new offer for _tokenId for the price _price. Emits the MarketTransaction event with txType \"Create offer\" Requirement: Only the owner of _tokenId can create an offer. Requirement: There can only be one active offer for a token at a time. Requirement: Marketplace contract (this) needs to be an approved operator when the offer is created."
      }
    },
    "version": 1
  }
}